:020000040800F2
:100000004007002091010008092800080D21000880
:1000100005280008CB05000897290008000000000B
:100020000000000000000000000000003928000867
:100030001D070008000000000D2800083B280008EC
:10004000AB010008AB010008AB010008AB010008E0
:10005000AB010008AB0100081F07000829070008D2
:1000600033070008AB010008AB010008AB01000832
:10007000AB010008AB010008AB010008AB010008B0
:10008000AB010008AB010008AB010008AB010008A0
:10009000AB010008AB010008AB010008AB01000890
:1000A000AB010008AB010008AB010008AB01000880
:1000B000AB010008AB010008AB010008AB01000870
:1000C000AB010008AB010008AB010008AB01000860
:1000D000AB010008AB010008AB010008AB01000850
:1000E000AB010008AB010008AB01000800F002F80A
:1000F00000F03FF80AA090E8000C82448344AAF183
:100100000107DA4501D100F034F8AFF2090EBAE880
:100110000F0013F0010F18BFFB1A43F0010318473B
:10012000D02C0000F02C0000103A24BF78C878C111
:10013000FAD8520724BF30C830C144BF04680C60ED
:10014000704700000023002400250026103A28BF35
:1001500078C1FBD8520728BF30C148BF0B60704739
:10016000642900F07780002070471FB51FBD10B5CF
:1001700010BD00F0F0F91146FFF7F7FF02F0AEFCFA
:1001800000F00EFA03B4FFF7F2FF03BC00F016FA1A
:100190000948804709480047FEE7FEE7FEE7FEE71B
:1001A000FEE7FEE7FEE7FEE7FEE7FEE70448054957
:1001B000054A064B70470000A9280008ED0000081A
:1001C00040010020400700204003002040030020A1
:1001D0000FB41CB50C0007AA009001D02044401EAB
:1001E000074B7B4469460190069800F094F9002C77
:1001F00003D06946002000F0A1F91CBC5DF814FB97
:100200006103000070B5044685690068C10601D528
:10021000302600E02026C00707D070BDD4E90121B8
:1002200030469047206A401C20626D1EF6D570BD96
:1002300070B5044685690078C00707D170BDD4E960
:10024000012120209047206A401C20626D1EF6D5B7
:1002500070BD00002DE9F0410646002410687529A4
:10026000314616A510D0AFF30080002802DA4042D4
:1002700013A507E031688A0701D512A502E04907F6
:1002800004D511A5012401E0AFF3008000210A226A
:1002900006F1240709E0B0FBF2FCB0FBF2F302FB2D
:1002A0001C00303078541846491C0028F3D12346EE
:1002B0002A463046BDE8F04100F0CEB8000000000C
:1002C0002D0000002B000000200000002DE9F05F51
:1002D000894604464FF0000ADFF824B1FB44C0F819
:1002E00020A02046E168884700287DD0252806D038
:1002F000D4E901219047206A401C2062F1E70025E3
:100300005F462046E16888472028064607DB312EF5
:1003100005D2B81910F8200C08B10543F1E7A80779
:1003200001D525F00405C4F81CA00027C4F818A0C6
:100330002A2E09D0304602F04DFB38B304EB870873
:10034000303EC8F8186019E059F8041B204604EB49
:1003500087029161E1688847012F064618D1E0695C
:10036000002820DA25F020051DE0D8F8180000EB61
:10037000800006EB40003038C8F818002046E168DD
:100380008847064602F026FB0028EED1012F0AD04E
:100390002E2E08D12046E16888477F1C0646022F92
:1003A00045F02005C4DBA069002803DA404245F08F
:1003B0000105A061E80701D025F01005A6B1A6F15E
:1003C0004100192802D8203645F400654A463146D6
:1003D000204625604D46FFF7C3FE60B1012807D0D7
:1003E000ED1D25F0070000E007E000F1080978E7BF
:1003F00005F1040975E730467AE7206ABDE8F09F09
:10040000FE2A00004FF0000200B5134694469646BF
:10041000203922BFA0E80C50A0E80C50B1F1200117
:10042000BFF4F7AF090728BFA0E80C5048BF0CC0C5
:100430005DF804EB890028BF40F8042B08BF704723
:1004400048BF20F8022B11F0804F18BF00F8012B95
:1004500070477047704770472DE9F0470D46994641
:100460009246044600F124080168880604D5E06934
:1004700021F01001216000E00120A84201DD471BAE
:1004800000E00027A1697A1902EB0900081AA061AF
:100490002078C00602D42046FFF7B4FE002608E00C
:1004A000D4E901211AF806009047206A401C761C06
:1004B00020624E45F4DB2078C0060AD52046FFF7BF
:1004C000A1FE06E0D4E9012130209047206A401CBB
:1004D0002062381EA7F10107F4DC07E0D4E901210E
:1004E00018F805009047206A401C2062281EA5F1DC
:1004F0000105F3DC2046FFF79BFE2078000602D5BD
:100500000220BDE8F0870120FBE7000001694A1CDA
:1005100002610878704700B58FB0CDE90131002144
:10052000059105497944CDE9031011466846FFF766
:10053000CDFE0FB000BD0000E5FFFFFF0A6802F826
:10054000010B0A607047D1E900239A4202D2531C82
:100550000B6010707047754600F02CF8AE46050031
:100560006946534620F00700854618B020B5FFF7CE
:100570001DFEBDE820404FF000064FF000074FF091
:1005800000084FF0000B21F00701AC46ACE8C009B1
:10059000ACE8C009ACE8C009ACE8C0098D467047BA
:1005A00010B50446AFF300802046BDE81040FFF7C9
:1005B000E9BD000000487047DC0000200149182018
:1005C000ABBEFEE726000200704700BFFEE7014613
:1005D00001F00F000A0902EB820200EB4200C0B2F8
:1005E000704701460A2091FBF0F200FB12100A222C
:1005F00091FBF2F200EB0210C0B2704710B5002080
:1006000000F016F800F0010010BD10B5022000F057
:100610000FF800F03F042046FFF7D9FF10BD10B5DA
:10062000012000F005F80446FFF7D1FF10BD0000DF
:1006300001B582B04FF47A70012302AAD021009054
:10064000074800F0F7FE4FF47A70012301AAD02189
:100650000090034800F038FD9DF804000EBD000036
:100660004000002010B50020FFF7E2FF00F07F04FB
:100670002046FFF7ACFF10BD10B502F06FF8002068
:1006800010BD70B504460CB97F2000E0FF20054680
:100690000020FFF7CDFF00EA05063146002000F0FC
:1006A00019F870BD70B5044604F03F00FFF799FFDC
:1006B00005462946022000F00DF870BD70B50446CD
:1006C0002046FFF78EFF05462946012000F002F87C
:1006D00070BD00007CB505460C468DF804508DF8C1
:1006E00005404FF47A70022301AAD02100900248FD
:1006F00000F0A0FE7CBD00004000002070B5044664
:10070000FFF77CFF05462046FFF76BFF65F3DF1020
:10071000C6B231460020FFF7DDFF70BD704710B54F
:10072000012000F037FA10BD10B5022000F032FAB7
:1007300010BD10B5042000F02DFA10BD72B600BF38
:10074000FEE7000070B5044600F0D0FB06462546E3
:10075000681C10B104480078054400BF00F0C6FBD7
:10076000801BA842FAD370BD3800002010B50446A3
:10077000012C77D10121F04800F0AAFB20B900F04C
:10078000B5FBEE49086010BD00F0B0FBEC49086015
:1007900008460068E9490968884254D9E848006871
:1007A000E6490968401A6428F7D90020E54908702D
:1007B000E548007848B9E5480078401C032190FBE3
:1007C000F1F201FB1200E1490870DF4800780128CE
:1007D00028D1DF48007850B9DE480078401C182145
:1007E00090FBF1F201FB1200DA4908701AE0DA48D6
:1007F000007850B9D9480078401C3C2190FBF1F2B8
:1008000001FB1200D54908700CE0D548007848B9C2
:10081000D4480078401C3C2190FBF1F201FB12000F
:10082000D0490870C848007802280CD1CE4800781A
:1008300050B9CE480078401C182190FBF1F201FB22
:100840001200CA49087075E1C948007858B9C9480A
:100850000078401C3C2190FBF1F201FB1200C549DD
:10086000087067E10EE0C44800780028EBD1C34867
:100870000078401C3C2190FBF1F201FB1200BF49C3
:10088000087057E1022C78D10221AB4800F020FB20
:1008900020B900F02BFBBA49086074E700F026FB92
:1008A000B849086008460068B54909688842CAD94D
:1008B000B4480068B2490968401A6428C3D90120C5
:1008C000A0490870A0480078A049097888421FD044
:1008D0009E4800789C4908700020A24908709F49F2
:1008E00008709C4908709E4908709B490870984997
:1008F0000870A24908709F4908709C490870A24975
:1009000008709D4908709A4908709749087011E16C
:100910008D480078012825D18D48007818B901202C
:100920008B4908700CE08C48007818B901208A497E
:10093000087005E08A48007810B9012088490870DD
:100940008348007800288CD083480078002888D01D
:1009500083480078002884D000207C4908707A49B8
:100960000870E7E07848007802288AD17E4800784D
:1009700020B901207C4908700DE021E07C48007816
:1009800018B901207A49087005E07B48007810B951
:10099000012079490870744800780028B7D074485D
:1009A00000780028B3D0744800780028AFD0002029
:1009B0006649087064490870012073490870B9E0FD
:1009C000042CA4D104215C4800F082FA20B900F084
:1009D0008DFA6E490860D6E600F088FA6C49086026
:1009E0000846006869490968884290D968480068E3
:1009F00066490968401A64286CD902205149087078
:100A00005148007860B951480078002805DD4F480A
:100A10000078401E4D49087002E002204B490870E2
:100A200049480078012840D14948007890B94948A0
:100A3000007800280ADD47480078401E182190FB06
:100A4000F1F201FB1200434908702EE017204149E2
:100A500008702AE04048007890B9404800780028A3
:100A60000ADD3E480078401E3C2190FBF1F201FB7C
:100A700012003A49087018E03B203849087014E029
:100A80003748007888B93748007800280ADD3548AB
:100A90000078401E3C2190FBF1F201FB120031492D
:100AA000087002E03B202F49087027480078022890
:100AB00040D12D48007890B92C48007800280ADDF4
:100AC0002A480078401E182190FBF1F201FB120029
:100AD000264908702EE01720244908702AE024488F
:100AE000007890B92348007800280ADD2148007872
:100AF000401E3C2190FBF1F201FB12001D490870E1
:100B000018E03B201B49087014E01B48007888B9A6
:100B10001A48007800280ADD18480078401E3C2159
:100B200090FBF1F201FB12001449087002E03B2037
:100B30001249087000BF26E6000801401800002096
:100B40001C000020090000200700002008000020F1
:100B50000D0000200A0000200E0000200B000020E5
:100B60000F0000200C0000201300002010000020C7
:100B700014000020110000201500002012000020A9
:100B80002000002024000020160000202800002063
:100B90002C00002010B5044604480068204020B115
:100BA000024804602046FFF7E1FD10BD1404014037
:100BB0002DE9F8470346002294466EE14FF0010804
:100BC00008FA02F4D1F8008008EA0400A0427DD1BE
:100BD000DFF8DCA2D1F80480A8EB0A09D0453AD0AE
:100BE00014DCB8F1030F50D009DCB8F1000F31D09C
:100BF000B8F1010F1CD0B8F1020F49D120E0B8F1D3
:100C0000110F18D0B8F1120F42D11EE0B9F5881FAC
:100C100025D006DCB9F5803F20D0B9F5801F37D14B
:100C20001AE0B9F5001F18D0B9F5041F30D117E04C
:100C3000D1F80CC02DE0D1F80C8008F1040C28E0AC
:100C4000D1F80C8008F1080C23E0D1F80C8008F1F1
:100C50000C0C1EE000BF00BF00BF00BF00BF00BF04
:100C6000D1F80880B8F1000F02D14FF0040C0BE06E
:100C7000D1F80880B8F1010F03D14FF0080C1C61C6
:100C800002E04FF0080C5C6103E04FF0000C00E064
:100C900000BF00BFFF2801D8984601E003F1040817
:100CA0004646FF2802D84FEA820803E0A2F108086E
:100CB0004FEA88084746D6F800804FF00F0909FA36
:100CC00007F928EA09080CFA07F900E088E048EA81
:100CD0000908C6F80080D1F8048008F08058B8F1FF
:100CE000805F7DD100BFDFF8CC81D8F8188048F054
:100CF0000108DFF8C091C9F81880C846D8F81880F4
:100D000008F00108CDF8008000BF00BF4FEAB938F5
:100D10004FEA920958F829504FEA82784FEA187939
:100D20004FF00F0808FA09F825EA0805DFF888816E
:100D3000434502D14FF0000816E0DFF880814345BB
:100D400002D14FF001080FE0DFF87481434502D172
:100D50004FF0020808E0DFF86C81434502D14FF004
:100D6000030801E04FF004084FEA82794FEA19794D
:100D700008FA09F848EA0505DFF84C814FEA9209BC
:100D800048F82950D1F8048008F48018B8F5801F7D
:100D90000AD1DFF83881D8F8008048EA0008DFF887
:100DA0002C91C9F8008009E0DFF82081D8F8008094
:100DB00028EA0008DFF81491C9F80080D1F804800F
:100DC00008F40018B8F5001F10D1DFF8008108F111
:100DD0000408D8F8008048EA0008DFF8F09000E046
:100DE0005AE009F10409C9F800800DE0DFF8DC8061
:100DF00008F10408D8F8008028EA0008DFF8CC9051
:100E000009F10409C9F80080D1F8048008F4003819
:100E1000B8F5003F0ED1DFF8B480A8F10408D8F887
:100E2000008048EA0008DFF8A490A9F10409C9F895
:100E300000800DE0DFF89480A8F10408D8F8008065
:100E400028EA0008DFF88490A9F10409C9F80080B5
:100E5000D1F8048008F48038B8F5803F0ED1DFF86F
:100E60006C80A8F10808D8F8008048EA0008DFF88C
:100E70005C90A9F10809C9F800800DE0DFF84C800A
:100E8000A8F10808D8F8008028EA0008DFF83C90AC
:100E9000A9F10809C9F80080521CD1F8008028FA8D
:100EA00002F8B8F1000F7FF489AEBDE8F8870000C2
:100EB000000011100010024000080140000C014029
:100EC00000100140001401400800014008040140E6
:100ED000024693680B400BB1012000E000207047F0
:100EE0000AB1016101E00B04036170470148006829
:100EF000704700003000002070B504460CB9012096
:100F000070BD94F83D0028B9002084F83C002046CC
:100F100000F048FB242084F83D002068006820F0A1
:100F20000100216808602068006840F400402168E2
:100F300008602068006820F400402168086000F024
:100F400009FD05465C496068884206D85B488542D1
:100F500001D2012007E0002005E05948854201D276
:100F6000012000E00020012800D1C9E75548B5FB69
:100F7000F0F62068406820F03F0030432168486068
:100F80004D496068884201D8701C07E04FF49670A4
:100F900070434FF47A71B0FBF1F0401C2168096A8C
:100FA00021F03F0108432168086243496068884294
:100FB00014D8681E61684900B0FBF1F0401CC0F312
:100FC0000B00042801D204203DE0681E616849003E
:100FD000B0FBF1F0401CC0F30B0034E0A06838B95E
:100FE000681E616801EB4101B0FBF1F0401C0AE0B2
:100FF000681E616801EBC10202EB0111B0FBF1F068
:10100000401C40F48040C0F30B0008B901201AE0F6
:10101000A06848B9681E616801EB4101B0FBF1F0BE
:10102000401CC0F30B000CE0681E616801EBC102BC
:1010300002EB0111B0FBF1F0401CC0F30B0040F4D7
:10104000804040F400402168C9694CF6FF7291432A
:1010500008432168C861D4E9070108432168096889
:1010600021F0C001084321680860D4E90310084357
:101070002168896848F2FF329143084321688860FB
:10108000D4E9050108432168C96821F0FF0108433C
:101090002168C8602068006840F00100216808608D
:1010A00000202064202084F83D000020206384F884
:1010B0003E0000BF24E70000A086010080841E00DF
:1010C00000093D0040420F002DE9FC4704468946D7
:1010D000174698460A9E00200190FFF707FF054635
:1010E00094F83D0020286FD119230122CD492046D4
:1010F000009501F05CF910B10220BDE8FC8700BF4B
:1011000094F83C00012801D10220F6E7012084F880
:101110003C0000BF2068006800F0010028B920688A
:10112000006840F00100216808602068006820F431
:10113000006021680860222084F83D00102084F8B7
:101140003E00002020646762A4F82A80608D20851C
:10115000B548E0622B4632464946204600F0F8FF8B
:1011600008B10120C9E7208D88B900BF0020009098
:1011700020684069009020688069009000BF00BF2F
:101180002068006840F40070216808604BE0208D02
:1011900001281AD12068006820F480602168086066
:1011A00072B600BF0020009020684069009020685F
:1011B0008069009000BF00BF2068006840F40070A4
:1011C0002168086062B62EE029E1208D022819D13D
:1011D0002068006840F400602168086072B600BFB3
:1011E000002000902068406900902068806900908D
:1011F00000BF00BF2068006820F48060216808609C
:1012000062B610E02068006840F4806021680860E1
:1012100000BF00200090206840690090206880692D
:10122000009000BF00BFEBE0208D03287ED8208D0A
:10123000012815D12A463146204601F094F908B11B
:1012400001205AE720680069616A0870606A401CE2
:101250006062208D401E2085608D401E6085CFE03D
:10126000208D02282CD1334600227049204600955B
:1012700001F09DF808B101203FE772B620680068D0
:1012800040F400702168086020680069616A087095
:10129000606A401C6062208D401E2085608D401E6B
:1012A000608562B620680069616A0870606A401CE7
:1012B0006062208D401E2085608D401E60859FE00D
:1012C0003346002259492046009501F070F808B1D4
:1012D000012012E72068006820F48060216808601F
:1012E00072B620680069616A0870606A401C6062BA
:1012F000208D401E2085608D401E60854C48006812
:101300001921B0FBF1F04FF47A71B0FBF1F0C0EBB2
:10131000C00000EB8000019000BF0198401E0190CA
:101320000198A8B900202063202000E038E084F86C
:101330003D00002084F83E00206C40F02000206436
:1013400062B600BF002084F83C0000BF0120D4E654
:1013500020684069C0F380000028DED02068006863
:1013600040F400702168086020680069616A0870B4
:10137000606A401C6062208D401E2085608D401E8A
:10138000608562B620680069616A0870606A401C06
:101390006062208D401E2085608D401E60852FE09C
:1013A0002A463146204601F0DEF808B10120A4E6C5
:1013B00020680069616A0870606A401C6062208D64
:1013C000401E2085608D401E608520684069C0F306
:1013D0008000A8B1208D032805D12068006820F482
:1013E00080602168086020680069616A0870606A2E
:1013F000401C6062208D401E2085608D401E6085EF
:10140000208D00287FF410AF202084F83D000020BC
:1014100084F83E0000BF84F83C0000BF6DE6022067
:101420006BE60000020010000000FFFF0400010056
:101430003C0000202DE9F8430446894616461F4625
:10144000DDF82080FFF752FD054694F83D00202886
:101450007ED11923012251492046009500F0A7FFB3
:1014600010B10220BDE8F88300BF94F83C000128C9
:1014700001D10220F6E7012084F83C0000BF20687B
:10148000006800F0010028B92068006840F0010001
:10149000216808602068006820F400602168086006
:1014A000212084F83D00102084F83E0000202064B4
:1014B00066626785608D20853948E0622B4642462A
:1014C0004946204600F0E0FE08B10120CAE700BF0F
:1014D000002000902068406900902068806900909A
:1014E00000BF00BF44E02A464146204601F080F894
:1014F00050B1206C042805D12068006840F40070C9
:10150000216808600120ADE7606A00782168086101
:10151000606A401C6062608D401E6085208D401EA8
:10152000208520684069C0F3800070B1208D60B1D3
:10153000606A007821680861606A401C6062608DA2
:10154000401E6085208D401E20852A46414600E0D1
:1015500022E0204600F0F8FE50B1206C042805D1AE
:101560002068006840F4007021680860012079E775
:10157000208D0028B7D12068006840F400702168F1
:101580000860202084F83D00002084F83E0000BF61
:1015900084F83C0000BF65E7022063E7020010000A
:1015A0000000FFFF10B586B00446002002900390B3
:1015B0000490059015492068884225D100BF144841
:1015C000806940F00800124988610846806900F08F
:1015D0000800019000BF00BFC020029012200390BD
:1015E0000320059002A90B48FFF7E2FA00BF084864
:1015F000C06940F400100649C8610846C06900F49B
:101600000010019000BF00BF06B010BD00540040A4
:1016100000100240000C01400348006803490978AB
:10162000084401490860704730000020380000205D
:1016300010B50848006840F0100006490860032013
:1016400000F0A8F8002000F007F800F02BF80020C8
:1016500010BD00000020024070B504460E4800781E
:101660004FF47A71B1FBF0F00C490968B1FBF0F569
:10167000284600F0E9FB08B1012070BD102C07D20C
:1016800000222146501E00F047F80548046001E0A2
:101690000120F2E70020F0E7380000203C000020A5
:1016A0003400002008B500BF1148806940F00100F7
:1016B0000F4988610846806900F00100009000BF72
:1016C00000BF00BF0846C06940F08050C8610846AE
:1016D000C06900F08050009000BF00BF00BF054906
:1016E000486820F0E06040F00070486000BF08BD2E
:1016F000001002400000014001460846002809DBB6
:1017000000F01F0301229A4043099B0003F1E023EC
:10171000C3F8002100BF70472DE9F05F80460D46F9
:101720001646002701F03AF9074639462A4633465D
:1017300001F00700C0F1070ABAF1040F02D94FF017
:10174000040A01E0C0F1070AD14600F1040ABAF127
:10175000070F02D24FF0000A01E0A0F1030AD446BD
:101760004FF0010A0AFA09FAAAF1010A0AEA020A82
:101770000AFA0CFA4FF0010B0BFA0CFBABF1010B60
:101780000BEA030B4AEA0B042146404601F00EF92E
:10179000BDE8F09F00BF00F00702064B19684FF646
:1017A000FF031940044B0B4343EA0221014B19602C
:1017B00000BF70470CED00E00000FA0570B504466C
:1017C0000D460CB9012070BD5A48006800F00700B2
:1017D000A8420ED25748006820F007002843554918
:1017E00008600846006800F00700A84201D0012008
:1017F000E9E7207800F0020002281DD1207800F0EF
:101800000400042805D14C48406840F4E0604A498F
:101810004860207800F00800082805D14648406854
:1018200040F46050444948604348406820F0F0006C
:10183000A168084340494860207800F0010078B36F
:101840006068012806D13C48006800F4003090B977
:101850000120B8E76068022806D13748006800F028
:10186000007040B90120AEE73348006800F0020084
:1018700008B90120A7E73048406820F003006168FC
:1018800008432D494860FFF731FB064609E0FFF7A2
:101890002DFB801B41F28831884202D9032092E758
:1018A00007E02548406800F00C006168B0EB810F4C
:1018B000EDD12048006800F00700A8420ED91D486D
:1018C000006820F0070028431A49086008460068AD
:1018D00000F00700A84201D0012074E7207800F052
:1018E0000400042807D11448406820F4E060E1684F
:1018F000084311494860207800F00800082808D102
:101900000D48406820F46050216940EAC1000A494E
:10191000486000F02FF808494968C1F30311074AED
:10192000515CC8400649086006480068FFF794FE0D
:10193000002048E70020024000100240C62D0008A9
:101940003C0000203400002001480068704700007F
:101950003C00002000B5FFF7F7FF04494968C1F3D8
:101960000221034A515CC84000BD00000010024043
:10197000D62D000870B5002100220024002300208D
:10198000134D696801F00C05F5B1042D02D0082D46
:1019900019D101E00F4819E00F4DC1F38346AB5D4B
:1019A00001F4803555B10A4D6D68C5F340450B4EC5
:1019B000725D084D5D43B5FBF2F402E0084D03FB98
:1019C00005F4204602E000BF024800BF00BF70BD22
:1019D0000010024000127A00B42D0008C42D000847
:1019E00000093D00F8B504460CB90120F8BD207887
:1019F00000F00100002878D0F848406800F00C00A2
:101A000004280CD0F548406800F00C00082811D1DB
:101A1000F248406800F48030B0F5803F0AD1EF48CA
:101A2000006800F4003000285FD0606800285CD1B6
:101A30000120DBE700BF6068B0F5803F06D1E748D2
:101A4000006840F48030E549086028E0606858B9D3
:101A5000E248006820F48030E049086008460068E9
:101A600020F4802008601AE06068B0F5A02F0BD148
:101A7000DA48006840F48020D849086008460068C9
:101A800040F4803008600AE0D448006820F48030D8
:101A9000D24908600846006820F48020086000BF32
:101AA000606888B1FFF722FA054606E0FFF71EFAE4
:101AB000401B642801D9032098E7C848006800F457
:101AC00000300028F2D010E0FFF710FA054606E0DB
:101AD000FFF70CFA401B642801D9032086E7BF48B2
:101AE000006800F400300028F2D1207800F00200F5
:101AF000022857D1B948406800F00C0050B1B748EF
:101B0000406800F00C00082818D1B448406800F480
:101B1000803098B9B148006800F0020020B1206917
:101B2000012801D0012061E7AC48006820F0F800EE
:101B3000616940EAC100A949086033E02069E8B161
:101B40000120A7490860FFF7D1F9054606E0FFF735
:101B5000CDF9401B022801D9032047E79F480068C0
:101B600000F002000028F2D09C48006820F0F80045
:101B7000616940EAC1009949086013E00020984972
:101B80000860FFF7B3F9054606E0FFF7AFF9401B21
:101B9000022801D9032029E79048006800F00200DC
:101BA0000028F2D1207800F0080008282DD1A06983
:101BB000B8B101208B490860FFF798F9054606E0A7
:101BC000FFF794F9401B022801D903200EE7834850
:101BD000406A00F002000028F2D0012000F018FE58
:101BE00013E000207F490860FFF780F9054606E012
:101BF000FFF77CF9401B022801D90320F6E677485D
:101C0000406A00F002000028F2D1207800F00400C1
:101C1000042873D100277148C06900F0805070B962
:101C200000BF6E48C06940F080506C49C8610846EA
:101C3000C06900F08050009000BF00BF01276A48D3
:101C4000006800F48070B0B96748006840F48070A4
:101C500065490860FFF74AF9054606E0FFF746F9CF
:101C6000401B642801D90320C0E65F48006800F4E7
:101C700080700028F2D000BFE068012806D15748E4
:101C8000006A40F001005549086227E0E06858B951
:101C90005248006A20F00100504908620846006A74
:101CA00020F00400086219E0E06805280BD14B48D9
:101CB000006A40F00400494908620846006A40F0A2
:101CC000010008620AE04548006A20F0010043492B
:101CD00008620846006A20F00400086200BFE0685D
:101CE000A0B1FFF703F9054609E0FFF7FFF8401B35
:101CF00041F28831884202D9032077E622E0374852
:101D0000006A00F002000028EFD012E0FFF7EEF8C2
:101D1000054608E0FFF7EAF8401B41F288318842A7
:101D200001D9032062E62D48006A00F00200002875
:101D3000F0D1012F05D12948C06920F080502749F2
:101D4000C86100BFE069C8B32448406800F00C00D7
:101D5000082860D0E069022848D1002020490866A0
:101D6000FFF7C4F8054606E0FFF7C0F8401B02285D
:101D700001D903203AE61948006800F000700028F5
:101D8000F2D1206AB0F5803F07D11448406820F4B2
:101D90000030A168084311494860D4E908010843AC
:101DA0000E49496821F4741108430C494860012028
:101DB0000B490866FFF79AF8054607E03DE0FFF794
:101DC00095F8401B022801D903200FE6034800685C
:101DD00000F000700028F2D02FE000000010024058
:101DE000000042428004424200700040002014493A
:101DF0000866FFF77BF8054606E0FFF777F8401B1B
:101E0000022801D90320F1E50E48006800F00070B7
:101E10000028F2D111E0E069012800D1E6E5094887
:101E2000466806F48031206A814204D106F47011BC
:101E3000606A814201D00120D8E50020D6E500008B
:101E4000000042420010024070B504462546681E5C
:101E5000B0F1807F01D301200FE0681E4FF0E02138
:101E600048610F214FF0FF3000F0A0FD00204FF03F
:101E7000E021886107200861002070BD30B502466E
:101E80000B4600BF92F83C00012801D1022030BD72
:101E9000012082F83C0000BF022082F83D0010685B
:101EA00044681068816824F070041868044310685E
:101EB0004460104D1068A8420BD01068B0F1804FFC
:101EC00007D00D4D1068A84203D00C4D1068A842F1
:101ED00005D121F08001586801431068816001201C
:101EE00082F83D0000BF002082F83C0000BF00BF28
:101EF000CDE70000002C0140000400400008004035
:101F000010B504460CB9012010BD94F83D0028B965
:101F1000002084F83C00204600F026F8022084F8D7
:101F20003D00211D206800F0C1FC012084F846001E
:101F300000BF84F83E0001213F200155402001559B
:101F40004120015500BF00BF012084F8420043201A
:101F50000155442001554520015500BF012084F85A
:101F60003D000020D0E7000008B50168B1F1804FC6
:101F70000DD100BF0649C96941F00101044AD16190
:101F80001146C96901F00101009100BF00BF08BD01
:101F900000100240014691F83D00012801D00120C7
:101FA0007047022081F83D00124B086898420BD020
:101FB0000868B0F1804F07D00F4B0868984203D0F3
:101FC0000E4B086898420CD10868806800F0070240
:101FD000062A0CD00868006840F001000B68186001
:101FE00005E00868006840F001000B6818600020F8
:101FF000D6E70000002C014000040040000800402B
:102000002DE9F04104460D46002700BF94F83C003E
:10201000012802D10220BDE8F081012084F83C00B3
:1020200000BF022084F83D002068866826F077060D
:1020300026F47F46206886602868502833D00CDC60
:10204000202850D004DC00284BD0102851D149E082
:10205000302849D040284CD139E060282DD0702854
:1020600007D0B0F5805F03D0B0F5005F41D10DE03F
:1020700041E0D5E902136A68206800F051FC20684D
:10208000866846F077062068866034E0D5E902135A
:102090006A68206800F044FC2068806840F4804052
:1020A0002168886027E0EA686968206800F04CFCD5
:1020B0005021206800F03FFC1DE0EA686968206854
:1020C00000F055FC6021206800F035FC13E0EA6860
:1020D0006968206800F038FC4021206800F02BFC83
:1020E00009E000BF00BF00BF2968206800F023FCA2
:1020F00001E0012700BF00BF012084F83D0000BFC0
:10210000002084F83C0000BF384684E700BFFEE7AB
:10211000014608684069C0F38020B0B16FF4806068
:102120000A68506100200863202081F83D000020EB
:1021300081F83E00086C40F00400086400BF0020F5
:1021400081F83C0000BF012070470020FCE7000040
:102150002DE9F84304460D4690461E46E76A20687E
:10216000006840F4806021680860082F04D0012FC7
:1021700002D017F5803F06D12068006840F48070D7
:102180002168086008E0206B112805D120680068EC
:1021900040F4807021680860434600224FF001112E
:1021A0002046009600F003F960B12068006800F452
:1021B0008070B0F5807F02D14FF40070206403205E
:1021C000BDE8F8832069B0F5804F05D1E8B240F052
:1021D00001002168086149E005F44070F02141EAFE
:1021E000E01021680861334642462649204600F047
:1021F0003DF908B10120E3E7E8B221680861334600
:1022000042462049891F204600F030F908B10120DC
:10221000D6E700BF00200090206840690090206849
:102220008069009000BF00BF2068006840F48070A3
:1022300021680860434600224FF0011120460096B5
:1022400000F0B5F858B12068006800F48070B0F56F
:10225000807F02D14FF4007020640320B0E705F4C2
:102260004070F12141EAE01021680861334642469E
:102270000449891F204600F0F9F808B101209FE7C2
:1022800000209DE7080001002DE9F84304460D46B3
:1022900017469846E66A082E04D0012E02D016F59D
:1022A000803F06D12068006840F480702168086093
:1022B00008E0206B122805D12068006840F4807087
:1022C000216808603B4600224FF001112046CDF8FE
:1022D000008000F06CF860B12068006800F4807045
:1022E000B0F5807F02D14FF4007020640320BDE878
:1022F000F8832069B0F5804F04D105F0FE00216815
:10230000086112E005F44070F02141EAE010216814
:10231000086143463A460B49204600F0A7F808B149
:102320000120E4E7E8B22168086143463A460549DE
:10233000891F204600F09AF808B10120D7E7002055
:10234000D5E700000800010070B504460D461646AA
:1023500025E02046FFF7DCFE08B1012070BD681CB7
:10236000E8B1FEF7C3FD801BA84200D8BDB92068C4
:102370004069C0F3800090B900202063202084F8D9
:102380003D00002084F83E00206C40F020002064D6
:1023900000BF002084F83C0000BF0120DEE7206879
:1023A0004069C0F380000028D3D00020D6E72DE993
:1023B000F04104460D4617461E46DDF8188038E009
:1023C000701CA8B3FEF792FDA0EB0800B04200D845
:1023D00076BBC5F3074001280AD120684069A9B23D
:1023E0000840A9B2884201D101200BE0002009E099
:1023F00020688069A9B20840A9B2884201D10120B1
:1024000000E00020B84214D100202063202084F88E
:102410003D00002084F83E00206C40F02000206445
:1024200000BF002084F83C0000BF0120BDE8F0811F
:10243000FFE7C5F3074001280AD120684069A9B227
:102440000840A9B2884201D101200BE0002009E038
:1024500020688069A9B20840A9B2884201D1012050
:1024600000E00020B842ABD00020DFE72DE9F041CA
:1024700004460D4616461F4658E020684069C0F3E2
:102480008020E8B12068006840F40070216808608E
:102490006FF480602168486100202063202084F868
:1024A0003D00002084F83E00206C40F004002064D1
:1024B00000BF002084F83C0000BF0120BDE8F0818F
:1024C000701C90B3FEF712FDC01BB04200D866BB73
:1024D000C5F3074001280AD120684069A9B2084025
:1024E000A9B2884201D101200BE0002009E0206858
:1024F0008069A9B20840A9B2884201D1012000E058
:10250000002090B900202063202084F83D000020A6
:1025100084F83E00206C40F02000206400BF0020C2
:1025200084F83C0000BF0120C8E7FFE7C5F307407F
:1025300001280AD120684069A9B20840A9B288429E
:1025400001D101200BE0002009E020688069A9B2D8
:102550000840A9B2884201D1012000E000200028F3
:102560008BD00020AAE770B504460D46164637E02A
:1025700020684069C0F30010A0B16FF0100021681E
:10258000486100202063202084F83D00002084F86A
:102590003E00206C206400BF002084F83C0000BF97
:1025A000012070BDFEF7A2FC801BA84200D8BDB977
:1025B00020684069C0F3801090B90020206320207B
:1025C00084F83D00002084F83E00206C40F020009C
:1025D000206400BF002084F83C0000BF0120E0E739
:1025E00020684069C0F380100028C1D00020D8E7DF
:1025F00070B504460D46164625E02046FFF788FDD7
:1026000008B1012070BD681CE8B1FEF76FFC801BAB
:10261000A84200D8BDB920684069C0F3C01090B985
:1026200000202063202084F83D00002084F83E0034
:10263000206C40F02000206400BF002084F83C00A3
:1026400000BF0120DEE720684069C0F3C010002809
:10265000D3D00020D6E7000000B585B0002001905F
:1026600002900390049000BF3848806940F0200039
:10267000364988610846806900F02000009000BF5C
:1026800000BF00BF0846806940F00400886108462A
:10269000806900F00400009000BF00BF00BF084642
:1026A000806940F0080088610846806900F00800F1
:1026B000009000BF00BF00224FF442712448FEF793
:1026C0000FFC00224FF470412248FEF709FC07205E
:1026D0000190214802900120039001A91C48FEF7B7
:1026E00067FA4FF44270019001200290002003909D
:1026F0000320049001A91648FEF75AFA4FF47040DF
:10270000019001200290002003900320049001A971
:102710001048FEF74DFA002201210620FEF7FCFFCB
:102720000620FEF7E9FF002201210720FEF7F4FF53
:102730000720FEF7E1FF002201210820FEF7ECFF51
:102740000820FEF7D9FF05B000BD000000100240D0
:1027500000080140000C01400000311010B50B488A
:102760000B4908600B484860002109488160C1603E
:102770004FF480410161002141618161C1610162C9
:10278000FEF7BAFB08B1FDF7D9FF10BD00540040B9
:1027900040000020A086010000B587B00020039013
:1027A000049005900690019002904FF080401449EB
:1027B0000860472048600021114881604FF6FF7192
:1027C000C160002101618161FFF79AFB08B1FDF74B
:1027D000B5FF4FF48050039003A90948FFF710FCA0
:1027E00008B1FDF7ABFF00200190029001A9044859
:1027F000FFF744FB08B1FDF7A1FF07B000BD0000E3
:102800009400002000BFFEE700BFFEE77047000015
:1028100008B508490968C9084FF47A72B1FBF2F1AA
:102820004143009100BF00BF00994A1E0092002959
:10283000F9D108BD3C000020704710B5FEF7ECFE52
:1028400010BD00B58FB0282105A8FDF7DBFD1421D0
:102850006846FDF7D7FD0120059000040690002092
:1028600007900120099002200C90C1030D914FF4B4
:10287000E0110E9105A8FFF7B5F808B1FDF75EFF6E
:102880000F20009002200190002002904FF4806001
:1028900003900020049002216846FEF78FFF08B1E4
:1028A000FDF74CFF0FB000BD7047000010B5026887
:1028B000184B984208D0B0F1804F05D0164B984283
:1028C00002D0164B984203D122F070024B681A4393
:1028D000104B984208D0B0F1804F05D00E4B984273
:1028E00002D00E4B984203D122F44072CB681A43B7
:1028F00022F080034C6943EA040202608B68C362E1
:102900000B688362034B984201D10B690363012377
:10291000436110BD002C014000040040000800404D
:1029200030B50C46816821F47F4142EA03252543F6
:102930002943816030BD0A46816821F0700142F070
:10294000070319438160704730B50B461446026A8D
:10295000056A25F001050562816921F0F00141EA6F
:10296000041122F00A021A438161026230BD30B5BF
:102970000B461446026A056A25F010050562816956
:1029800021F4704141EA043122F0A00242EA03122C
:102990008161026230BD00BFFEE7000002480068AE
:1029A000C0F30220704700000CED00E010B50028D5
:1029B00004DB0A07130E054A135406E00A07140E37
:1029C000034A00F00F031B1FD45410BD00E400E0C5
:1029D00018ED00E030380A2801D2012070470020AD
:1029E000704700000021054A1268516200BF034988
:1029F0000968496A8142FAD37047000094000020B8
:102A000010B5012000F05CF80320FDF79BFE10BD1F
:102A100010B53220FDF796FE302000F051F8052069
:102A2000FDF790FE302000F04BF80120FDF78AFE04
:102A3000302000F045F80A20FDF784FE202000F049
:102A40003FF80A20FDF77EFE282000F039F801202B
:102A5000FDF778FE082000F033F80120FDF772FE44
:102A6000012000F02DF80120FDF76CFE0120FDF79C
:102A700069FE062000F024F80120FDF763FE0C201B
:102A800000F01EF810BD10B5044603E014F8010B69
:102A900000F01DF820780028F8D110BD70B505466B
:102AA0000C4615B1012D06D102E044F0800402E08D
:102AB00044F0C00400BF00BFE0B200F001F870BDF8
:102AC00010B504460021204600F00CF910BD10B5E9
:102AD00004460121204600F005F910BD8AB0FEF73A
:102AE000A7FDFFF7AEFEFFF7B7FDFFF755FE654800
:102AF000FFF750FAFDF7C0FDFFF78AFF0024C0E0A2
:102B00006148007820B1012877D0022874D195E07F
:102B10005E480078002857D1FFF772FF0021084671
:102B2000FFF7BCFF5AA0FFF7AEFF00210120FFF71F
:102B3000B5FFFDF76AFD58498870FDF770FD5649ED
:102B40004870FDF78FFD54490870084600784978B1
:102B5000CDE900105048837850A21E2102A8FDF74D
:102B600037FB02A8FFF78FFF50480078C8B14A48EA
:102B700080784F490978884213D1474840784D49B9
:102B8000097888420DD1444800784B490978884239
:102B900007D1012208214948FEF7A2F9FEF7A6F95C
:102BA000044664B1FEF7A2F9001B42F2107188429C
:102BB00005D9002208214148FEF792F900244FF47C
:102BC0007A70FDF7BFFD15E00020FDF75AFD3C4887
:102BD0000078FDF767FD3B480078FDF76FFD3A4848
:102BE0000078FDF78BFD00203849087038490870DF
:102BF0002649087044E000E041E0FFF701FF0021B2
:102C00000846FFF74BFF33A0FFF73DFF00210120EF
:102C1000FFF744FF2C4800782A490978CDE90010D5
:102C2000274803781DA21E2102A8FDF7D1FA02A8A9
:102C3000FFF729FF6420FDF785FD21E0FFF7E0FEA7
:102C400000210846FFF72AFF24A0FFF71CFF002100
:102C50000120FFF723FF1848007816490978CDE9CD
:102C60000010134803780DA21E2102A8FDF7B0FA48
:102C700002A8FFF708FF6420FDF764FD00E000BF35
:102C800000BF3DE794000020080000200D00002058
:102C90004D6F646520300000000000202530326454
:102CA0003A253032643A25303264000016000020A4
:102CB0001000002011000020120000200008014038
:102CC0000A0000200B0000200C0000200F00002054
:102CD0000E0000204D6F6465203100004D6F64656B
:102CE0002032000070B504460D46EAB24FF4807100
:102CF0002E48FEF7F5F8E2094FF400412C48FEF7A4
:102D0000EFF8C4F380124FF480412948FEF7E8F849
:102D1000C4F340124FF400512548FEF7E1F8C4F324
:102D200000124FF480512248FEF7DAF801225102D6
:102D30001E48FEF7D5F81420FFF754FE00224FF48A
:102D400000711A48FEF7CCF81420FFF74BFEC4F3CD
:102D5000C0024FF400411648FEF7C2F8C4F38002E7
:102D60004FF480411248FEF7BBF8C4F340024FF421
:102D700000510F48FEF7B4F804F001024FF48051FF
:102D80000B48FEF7ADF8012251020848FEF7A8F8FB
:102D90001420FFF727FE00224FF400710348FEF7CE
:102DA0009FF81420FFF71EFE70BD000000080140D0
:102DB000000C014002030405060708090A0B0C0D6C
:102DC0000E0F1010010200000000000000000102C0
:102DD00003040607080900000000010203040400C0
:102DE00000080000000000000002000100001000C8
:102DF000102E0008000000204000000028010008FC
:102E0000502E000840000020000700004401000888
:102E100000000000000000000000000000000000B2
:102E200000000000000000000000000000000000A2
:102E30000000000000000000000000000000000092
:102E40000000000010000000010000000024F40059
:04000005080000ED02
:00000001FF
