:020000040800F2
:10000000C01A0020C901000847150008B5140008EF
:1000100045150008BF0300084B3000080000000031
:10002000000000000000000000000000F7180008B9
:100030004D04000800000000F5180008F918000839
:10004000E3010008E3010008E3010008E301000800
:10005000E3010008E3010008E3010008E3010008F0
:10006000E3010008E3010008E3010008E3010008E0
:10007000E3010008E3010008E3010008E3010008D0
:10008000E3010008E3010008E3010008E3010008C0
:10009000D52F0008E3010008E3010008E301000890
:1000A000E3010008E3010008E3010008E3010008A0
:1000B000E3010008E3010008E3010008E301000890
:1000C000E3010008E3010008E3010008E301000880
:1000D000E3010008E3010008E3010008E301000870
:1000E000E3010008E3010008E301000800F002F862
:1000F00000F05AF80AA090E8000C82448344AAF168
:100100000107DA4501D100F04FF8AFF2090EBAE865
:100110000F0013F0010F18BFFB1A43F0010318473B
:10012000C02F0000E02F00000A444FF0000C10F830
:10013000013B13F0070408BF10F8014B1D1108BF65
:1001400010F8015B641E05D010F8016B641E01F805
:10015000016BF9D113F0080F1EBF10F8014BAD1C55
:100160000C1B09D16D1E58BF01F801CBFAD505E073
:1001700014F8016B01F8016B6D1EF9D59142D6D3CD
:10018000704700000023002400250026103A28BFF5
:1001900078C1FBD8520728BF30C148BF0B607047F9
:1001A0001FB51FBD10B510BD00F0CFF81146FFF709
:1001B000F7FF02F05BFF00F0EDF803B4FFF7F2FF8A
:1001C00003BC00F0F5F800000948804709480047E3
:1001D000FEE7FEE7FEE7FEE7FEE7FEE7FEE7FEE7F7
:1001E000FEE7FEE704480549054A064B7047000054
:1001F00073190008ED000008C0140020C01A002088
:10020000C0160020C0160020032A40F2308010F0F3
:10021000030C00F0158011F8013BBCF1020F6244A1
:1002200098BF11F801CB00F8013B38BF11F8013B32
:10023000A2F1040298BF00F801CB38BF00F8013BDF
:1002400011F0030300F02580083AC0F0088051F84F
:10025000043B083A51F804CBA0E80810F5E7121D5A
:100260005CBF51F8043B40F8043BAFF30080D20779
:1002700024BF11F8013B11F801CB48BF11F8012B45
:1002800024BF00F8013B00F801CB48BF00F8012B68
:10029000704710B5203AC0F00B80B1E81850203AF2
:1002A000A0E81850B1E81850A0E81850BFF4F5AF16
:1002B0005FEA027C24BFB1E81850A0E8185044BFA0
:1002C00018C918C0BDE810405FEA827C24BF51F80D
:1002D000043B40F8043B08BF7047D20728BF31F801
:1002E000023B48BF11F8012B28BF20F8023B48BF52
:1002F00000F8012B70474FF0000200B513469446FA
:100300009646203922BFA0E80C50A0E80C50B1F16D
:100310002001BFF4F7AF090728BFA0E80C5048BF81
:100320000CC05DF804EB890028BF40F8042B08BF1F
:10033000704748BF20F8022B11F0804F18BF00F81B
:10034000012B7047704770477047754600F02CF8D6
:10035000AE4605006946534620F00700854618B0B2
:1003600020B5FFF73FFFBDE820404FF000064FF0FB
:1003700000074FF000084FF0000B21F00701AC46DA
:10038000ACE8C009ACE8C009ACE8C009ACE8C009F9
:100390008D46704710B50446AFF300802046BDE897
:1003A0001040FFF70ABF0000004870475C140020AF
:1003B00001491820ABBEFEE7260002007047FEE7A9
:1003C000002070470020704710B5002204490548FE
:1003D00001F0C2FB0449034801F0B8FB002010BD46
:1003E0004C0B0020880200204C07002070B50C4602
:1003F00005460146074801F0A9FB064801F08AFBC3
:10040000294605482268FFF7FFFE04492088088036
:10041000002070BD8802002088010020000000201C
:10042000094A10B5D2F8B822D2F814220AB1012034
:1004300010BD0A460146044801F08EFBBDE810409D
:10044000014801F0E7BB000088020020704772B647
:10045000FEE700000148806870470000640000204B
:10046000024881680278114481607047640000206E
:10047000074810B5016841F010010160032000F049
:1004800075F80F2000F006F800F024F8002010BDE9
:100490000020024070B50D4D04464FF47A71287863
:1004A000B1FBF0F00A490968B1FBF0F000F0EEFF93
:1004B00048B9102C07D200222146501E00F036F811
:1004C00000206C6070BD012070BD00006400002041
:1004D000700000200C4808B5816941F0010181617C
:1004E000816901F001010091C16941F08051C16150
:1004F000C06900F0805000900448416821F0E0613C
:1005000041F00071416008BD001002400000014050
:10051000002809DB00F01F02012191404009800002
:1005200000F1E020C0F8001170470000F0B40E4B5D
:100530001B680C46C3F30223C3F10705042D00D941
:100540000425191D072901D2002300E0DB1E012626
:1005500006FA05F1491E214099409E40761E16403C
:100560003143F0BC02F072BD0CED00E0064900F032
:10057000070208684FF6FF03184040EA0220034ACA
:1005800010430860704700000CED00E00000FA0521
:1005900010B50C0607D501F0070101EB810100EB56
:1005A000C100283005E001EB810100EBC10000F53E
:1005B000B47099B232B1012202730181190C4181E8
:1005C000002010BD00220273C180F9E7704701EBE3
:1005D000810200EBC202D0F8EC02D26B01F0C9BC80
:1005E00001EB810200EBC202D0F8EC02D2F87C21D0
:1005F00001F022BD70B504460B0601F0070000EBC8
:10060000800104EBC1014FF001024FF0000503D55A
:1006100081F82920283103E081F8695101F5B4718E
:10062000087094F8A802012808D084F8A82220684D
:1006300002F064F984F8A852002070BD022070BD59
:1006400070B5044601F00F006268904201D90120A4
:1006500070BD0B0601F0070000EB800104EBC10147
:100660004FF001024FF0000503D581F82920283111
:1006700003E081F8695101F5B4718D70087094F848
:10068000A802012808D084F8A822206802F0D3F933
:1006900084F8A852002070BD022070BD2DE9F05FE3
:1006A00004685FEA424C0B788D69B4F850C04FF093
:1006B00000064BF68F7948F2800A48F68F7B48F2A5
:1006C000C00E4FF480672AD54FF0020808EBC3082C
:1006D000C44407EB4C07E45BC4F30904A54203D30D
:1006E0002D1B8D6101D00BE08E61066836F823501A
:1006F00005EA090585F4005545EA0A0526F8235060
:10070000520609D50D78036833F8252002EA0B025A
:1007100042EA0E0223F8252084B30A8929E04FF02B
:10072000060808EBC308C44407EB4C07E45BC4F3BA
:100730000904A54203D32D1B8D6101D00BE08E610E
:10074000066836F8235005EA090585F4005545EAA0
:100750000A0526F82350520609D40B78056835F8A7
:10076000232002EA0B0242EA0E0225F823202CB1D4
:100770004A8949690068234602F036FC2046BDE8F4
:10078000F09F2DE9F05F054600680C465FEA426C79
:1007900016468B692278B0F850C048F68F774CF235
:1007A00080094FF4004B4FF6FF7E4FF4806A4FF004
:1007B000000172D54FF0020808EBC208E0440AEBD2
:1007C000480C30F80C00C0F30900834211D91B1A01
:1007D000A3610FD0730407D52E6836F822303B4052
:1007E00043EA090326F8223094F82420012A47D04E
:1007F00052E1A161607810B1012813D01AE0286895
:10080000B0F85030184400EB0210B0F80424C2F3E2
:100810000902A0F80424B0F8042442F40042A0F82D
:10082000042407E02868B0F85030184400EB0210A8
:10083000A0F804146278286812B1012A11D018E0D7
:10084000B0F850100844217800EB0110B0F80C14F7
:10085000C1F30901A0F80C14B0F80C1441F40041E4
:1008600005E0B0F850201044227800EB0210A0F808
:100870000C1421782846FFF7AAFE700472D40BE10D
:10088000626902446261E2690244E2612369226AA8
:100890009A4203D31846111A04E03EE084F824106B
:1008A0000AB110462162617811B1012929D031E0E5
:1008B0002968B1F850201144227801EB0211B1F8F7
:1008C0000424C2F30902A1F8042401F204413E28E1
:1008D00007D94209C30600D1521E0B884BEA822277
:1008E00007E048B14208C30700D0521C0B880EEA4B
:1008F000822213430B800DE00A8842F400420A80F2
:1009000008E02968B1F850201144227801EB021167
:10091000A1F8040483B22289BAE04FF0060808EB7C
:10092000C208E0440AEB480C30F80C00C0F30900A0
:10093000834211D31B1AA3610FD0730407D42E680E
:1009400036F822303B4043EA090326F8223094F877
:100950002420012A51D09FE0A161607818B10128BC
:1009600014D01BE03FE02868B0F85030184400EB8A
:100970000210B0F80424C2F30902A0F80424B0F86D
:10098000042442F40042A0F8042407E02868B0F8E8
:100990005030184400EB0210A0F804146278286864
:1009A00012B1012A11D018E0B0F850100844217893
:1009B00000EB0110B0F80C14C1F30901A0F80C14FD
:1009C000B0F80C1441F4004105E0B0F85020104498
:1009D000227800EB0210A0F80C1421782846FFF7CB
:1009E000F6FD700458D42278296831F82200384086
:1009F00040EA090021F822004EE062690244626187
:100A0000E2690244E2612369226A9A4203D31846EA
:100A1000111A216204E00AB11046216284F8241000
:100A20006278296812B1012A28D02FE0B1F850204D
:100A30001144227801EB0211B1F80C24C2F309022F
:100A4000A1F80C2401F20C413E2807D94209C30643
:100A500000D1521E0B884BEA822207E048B14208BF
:100A6000C30700D0521C0B880EEA822213430B806E
:100A70000CE00A8842F400420A8007E0B1F85020F6
:100A80001144227801EB0211A1F80C04628983B2AF
:100A90006169286802F0C6FA2278296831F82200D4
:100AA00048F6BF73184080F0300048F280031843C6
:100AB00021F822000020BDE8F09F01F0070101EBC2
:100AC000810100EBC100D0F8840170472DE9F041AD
:100AD00004460F0601F0070000EB800104EBC101A2
:100AE0004FF001064FF0000503D581F82960283149
:100AF00003E081F8695101F5B471022B08700A61B5
:100B0000CB7000D10D7194F8A802012809D084F8A7
:100B1000A862206801F0A2FD284684F8A852BDE82A
:100B2000F0810220FBE710B501F0070404EB84011B
:100B300000EBC101C1E95F230022C1F8842181F8E3
:100B4000692181F86841006801F5B47101F0C8FFBE
:100B5000002010BD70B504460D4601F00700616825
:100B6000884201D9012070BD29064FF000064FF0E0
:100B7000010207D500EB800104EBC10181F82920B7
:100B8000283107E005EB850104EBC10181F86961BB
:100B900001F5B4718A70087094F8A802012807D092
:100BA00084F8A822206801F082FF680702D006E0DE
:100BB000022070BD04F52C71206801F03AFF84F822
:100BC000A862002070BD10B501F0070404EB840199
:100BD00000EBC101C1E90F23012281F84C208B6495
:100BE00000234B6481F8292001F8284F006801F0A8
:100BF00077FF002010BD00001FB50446006802F01A
:100C0000EFF9010403D5204600F09EFC1FBD41050D
:100C10000DD5206830F8441F21F480610180204602
:100C200000F010F90021204600F027F91FBD410413
:100C300005D5206830F8441F21F4804174E0810418
:100C400005D5206830F8441F21F400516CE0C10440
:100C500014D5206830F8401F21F00401018020687D
:100C600030F8401F21F008010180204600F0FDF817
:100C7000206830F8441F21F4805155E0010540D52B
:100C8000D4F800200020694632F8203021F81030D6
:100C9000401CC0B20828F7D332F8400F40F00100E2
:100CA0001080206830F8402F22F001020280206876
:100CB000B0F844205205FBD530F8442F22F480626E
:100CC00002800020236831F8102023F82020401CE7
:100CD000C0B20828F6D3206830F8401F41F0080160
:100CE0000180206830F8441F21F4006101802068F1
:100CF00030F8401F41F004010180204600F0F2F876
:100D00001FBD810509D5206830F8441F21F400710A
:100D10000180204600F0ADF81FBDC005FCD520685D
:100D200030F8441F21F4807101801FBD2DE9F0418E
:100D300086B0040004D094F8A902002520B108E090
:100D4000012006B0BDE8F08184F8A852204600F0EA
:100D50005BF8032084F8A902206801F063FE04F127
:100D60001001142288466846FFF793FA94E80F00B2
:100D700001F0C2FD0227D0BB0021206802F04AF931
:100D8000002001260EE000BF00EB800104EBC10152
:100D900081F8296001F8280F401CCD700D614D616C
:100DA000C0B28D6161688142EED8002012E000BFC0
:100DB00000EB800104EBC10181F8695181F8680101
:100DC00081F86B51C1F87851C1F87C51401CC0B218
:100DD000C1F8805161688142EAD8142241466846D0
:100DE000FFF757FA94E80F0001F013FE10B184F8F2
:100DF000A972A5E784F8245084F8A962206801F05C
:100E000006FE00209DE7000008B500680B498842F7
:100E100012D10B48C16941F40001C161C0690022CF
:100E200000F40000009011461420FFF77FFBBDE89E
:100E300008401420FFF76CBB08BD0000005C0040B8
:100E40000010024070B5044680680125022801D0D8
:100E5000FFF7FDFA2946D4F8EC0201F0D6F9D4F8F0
:100E6000EC02BDE8704001F092B9D0F8EC0201F05C
:100E7000B6B9D0F8EC0201F0BCB910B5044690F850
:100E8000A80201280BD0012084F8A80284F82410BD
:100E9000206802F0C1F8002084F8A80210BD0220EA
:100EA00010BDD0F8EC2200F52C71104601F0B9B954
:100EB00010B5044690F8A802012810D0012084F84B
:100EC000A802206802F07DF801212046FFF77EFB92
:100ED000206801F09AFD002084F8A80210BD0220CD
:100EE00010BD000010B50446D0F8EC0201F0D8F9AE
:100EF000A069002804D00348016841F006010160A0
:100F000010BD000010ED00E02DE9F8430546007823
:100F1000354CC00754D0E0690026C00008D4E06911
:100F200040F08050E061E069012600F080500090C0
:100F30002E480168C90512D40168804641F48071C9
:100F40000160FFF787FA074605E000BFFFF782FA66
:100F5000C01B642823D8D8F80000C005F6D5206A45
:100F600010F4407021D0A98801F4407181421CD056
:100F7000206A1F49012220F440700A6000220A60A2
:100F80002062C00711D0FFF765FA074641F28838A2
:100F900008E000BFFFF75EFAC11B414502D90320FC
:100FA000BDE8F883206A8007F4D5206A696820F4D8
:100FB0004070084320621EB1E06920F08050E0617B
:100FC0002878800705D56068A96820F44040084368
:100FD00060602878C00605D56068E96820F4800064
:100FE000084360600020DBE7001002400070004012
:100FF000400442422DE9F0470F46050061D0434EC0
:10100000306800F00700B84209D2306820F00700CD
:1010100038433060306800F00700B84251D128688A
:101020003B4C810712D5400703D5606840F4E0606F
:1010300060602878000703D5606840F46050606005
:101040006068A96820F0F000084360602878C00755
:1010500028D06868012810D02168022810D089079C
:1010600000292EDA616821F0030101436160FFF776
:10107000F1F9804641F288390DE021688903EFE7F4
:101080008901EDE7FFF7E6F9A0EB0801494502D930
:101090000320BDE8F0876068696800F00C00B0EBE1
:1010A000810FEFD1306800F00700B8420BD93068EB
:1010B00020F0070038433060306800F00700B84285
:1010C00001D00120E5E72878400705D56068E96888
:1010D00020F4E060084360602878000706D5606867
:1010E000296920F4605040EAC100606000F018F8FF
:1010F0006168084AC1F30311515CC84006490860A1
:1011000006480068FFF7C6F90020C2E70020024049
:1011100000100240CE30000870000020680000205F
:101120000E4A51680E4801F00C03042B11D0082B15
:101130000FD10C48C1F38343C903C05C0AD5516881
:10114000084AC1F34041921E515C054A5043B0FB2E
:10115000F1F0704704494843704700000010024016
:1011600000127A00BE30000800093D002DE9F84F5A
:10117000040070D02078C04DC00749D06868C0F323
:101180008100012807D06868C0F38100022809D1D6
:101190006868C00306D52868800339D560680028D0
:1011A000E7D035E06068B0F5803F0BD010B1B0F506
:1011B000A02F11D0286820F480302860286820F4FF
:1011C000802002E0286840F480302860606890B198
:1011D000FFF740F906460AE0286840F480202860BE
:1011E000F0E700BFFFF736F9801B642873D8286842
:1011F0008003F7D50CE0FFF72DF9064605E000BFA8
:10120000FFF728F9801B6428F0D828688003F7D4FA
:1012100020789A4E80074FF001094FF0000839D529
:10122000686810F00C0F07D06868C0F381000228CE
:1012300009D16868C00306D42868800714D52069DE
:10124000012808D110E02069B0B1C6F80090FFF77E
:1012500001F9074605E00AE1FFF7FCF8C01B022888
:10126000C4D828688007F7D52868616920F0F8009D
:1012700040EAC10028600DE0C6F80080FFF7EAF8F8
:10128000074604E0FFF7E6F8C01B022823D82868C9
:101290008007F7D4207800072CD57948A169D9B107
:1012A000C0F80090FFF7D6F8074604E0FFF7D2F841
:1012B000C01B02280FD8686A8007F7D571484FF421
:1012C000FA510068B0FBF1F0009000BF0098411E99
:1012D0000091FAD20EE080E0C0F80080FFF7BAF883
:1012E000074604E0FFF7B6F8C01B022875D8686A05
:1012F0008007F7D42078400760D5E8690027C00050
:1013000008D4E86940F08050E861E869012700F0FE
:10131000805000905C480168C90513D40168834679
:1013200041F480710160FFF795F8824606E000BF46
:10133000FFF790F8A0EB0A0064284ED8DBF8000015
:10134000C005F5D5E06801280AD008B1052813D0FA
:10135000286A20F001002862286A20F0040002E0D8
:10136000286A40F001002862E06841F2883B98B1A9
:10137000FFF770F882460BE0286A40F0040028620C
:10138000EEE700BFFFF766F8A0EB0A0159455AD80F
:10139000286A8007F6D50CE0FFF75CF8824605E086
:1013A000FFF758F8A0EB0A0159454CD8286A800786
:1013B000F6D41FB1E86920F08050E861E06988B395
:1013C0006968C1F38101022944D00228C6F860800F
:1013D00004D0FFF73FF8044638E034E0FFF73AF86E
:1013E000074604E0FFF736F8C01B02282BD8286810
:1013F0008001F7D4206AB0F5803F05D16868A16804
:1014000020F4003008436860D4E9080108436968A3
:1014100021F4741108436860C6F86090FFF71AF869
:10142000044606E025E000BFFFF714F8001B022881
:1014300009D828688001F7D51BE000BFFFF70AF83C
:10144000001B022802D90320BDE8F88F286880011C
:10145000F4D40EE00128F7D06868226A00F48031E5
:10146000914204D1616A00F47010884201D00120D9
:10147000EAE70020E8E700000010024000004242D6
:1014800080044242700000200070004010B5401EF1
:10149000B0F1807F01D3012010BD4FF0E0246061E6
:1014A0000F21601701F0D2FD0020A061072020610C
:1014B000002010BDFEE70000F0B500230A2430250F
:1014C00037261F4611E000BFB4EB107F02D905EBB1
:1014D000107C01E006EB107C01F813C001EB430C1B
:1014E00000015B1C8CF80170DBB29342ECD3F0BDC1
:1014F00010B500220F49104800F014FD08B1FEF7A6
:10150000A6FF0E490C4800F0F1FE08B1FEF79FFF60
:101510000B49094800F012FB08B1FEF798FF064896
:1015200000F03AFF002803D0BDE81040FEF78FBF5F
:1015300010BD00000400002088020020500100209F
:1015400054000020FEE7FEE72DE9F84F044640F680
:101550008F7B48F60F794FF480684FF0000AC0E1A6
:10156000B0F8441011F00F0539D030F8256031047F
:101570007ED530F8251001EA0B0141F0800120F8FA
:10158000251005EB850004EBC00797F8740107F5FB
:10159000B47700286DD0F87802286BD039782268AB
:1015A00032F8210048F68F73184048F2C003184300
:1015B00022F821003978206830F82120B0F8503026
:1015C00052047DD5022202EBC1015A1808EB4201F8
:1015D000415A8905890D009173D03A89DFE0C90627
:1015E0002DD4018801EA090141F4004101802068FD
:1015F00004F12805B0F850302978022202EBC1012D
:101600005A1808EB4201405AC0F309006064E16BCC
:101610000844E06300212046FEF7D9FF94F8240037
:1016200000289CD0A869002899D194F8240021684A
:1016300040F08000A1F84C0084F824A051E101881A
:1016400004F5B4750A0521D5B0F850202B78062191
:1016500001EBC3010A4408EB4201405A04F52C7126
:10166000C0F30903EB61EA88206801F0BDFC02E0E9
:10167000B0E070E080E02068018801EA0B0141F0F1
:10168000800101802046FFF70CFC2AE10904D5D532
:10169000018801EA0B0141F0800101802068B0F867
:1016A00050202B78062101EBC3010A4408EB4201CC
:1016B000405A83059B0DEB6110D0696971B101E05F
:1016C00061E05FE0EA88206801F08EFCE969686902
:1016D0000844686100212046FEF782FF21680888DF
:1016E0000205ABD4C0F301300328A7D0B1F85000F5
:1016F0000844B0F80C14C1F30901A0F80C142A69CD
:1017000000F20C403E2A09D95109D20600D1491EE7
:1017100002884FF4004343EA812109E0B2B1510845
:10172000D20700D0491C02884FF6FF7303EA8121DB
:101730000A430280216808884BF68F72104080F4BB
:10174000405048F2800210430880CAE0018841F40A
:1017500000410180EEE72068B0F850203B78062178
:1017600001EBC3010A4408EB4201415A8905890D86
:10177000009118D0FA8812E0324639462046FEF72A
:101780008DFF00900FE0062202EBC1015A1808EB12
:101790004201415A8905890D009104D07A897969FD
:1017A000009B01F021FCF86900990844F86179690F
:1017B000009808447861B86918B139690098814285
:1017C00004D939782046FEF70BFF03E0394620683C
:1017D00001F086F930062FD505EB850004EBC0013A
:1017E000206830F8252002EA090242F4004220F87D
:1017F000252091F82B00283101281ED0F0056CD44B
:101800002068B0F850300D78022202EBC5021A446D
:1018100008EB4202805A8A69C0F30900824255D916
:10182000121A8A6154D04A6902444A61CA69104452
:10183000C861206801F054F953E0C1F818A0087B92
:10184000524608B3700620D5487810B1012812D04E
:101850003AE02068B0F8502010440A7800EB0210FB
:10186000B0F80424C2F30902A0F80424B0F8042458
:1018700042F4004206E02068B0F8503018440B787B
:1018800000EB0310A0F804241EE04B78206813B18D
:10189000012B11D018E0B0F8502010440A7800EB6A
:1018A0000210B0F80C24C2F30902A0F80C24B0F81E
:1018B0000C2442F4004205E0B0F8503018440B7894
:1018C00000EB0310A0F80C24097802E0C1F818A07E
:1018D000E9B22046FEF77BFE03E032462046FEF7E3
:1018E00050FF2068B0F8441009043FF539AE0020DD
:1018F000BDE8F88F70477047FEF7B2BD30B593B0C2
:1019000028216846FEF7F7FC14210AA8FEF7F3FC2D
:10191000002401200F9410941194010412948DE876
:10192000130004904FF4E010CDE90810022507954C
:101930006846FFF71BFC08B172B6FEE70F20CDE941
:101940000A054FF48060CDE90C4002210AA80E94EC
:10195000FFF750FB08B172B6FEE710200F9012940B
:101960000FA8FFF7D1FA002801D072B6FEE713B036
:1019700030BD70472DE9F041D0F8C032D0F8B82220
:10198000CAB101EB810500EB85040026E7693FB190
:1019900003EBC5039B6BB7FBF3F503FB157323B197
:1019A000C2F814620020BDE8F08100231A46E66107
:1019B00000F07FFCF6E70220F5E770B50546D0F8A9
:1019C000B84200F07AFBC4F80C02D5F8B80248B16E
:1019D000D5F8BC12D4F80402CA6804F50371904724
:1019E000002070BD022070BD70B504460026812124
:1019F00000F0B6FA002501212046E56200F0B0FAB9
:101A000082212046C4F86C5100F0AAFA2564D4F86B
:101A1000B80248B1D4F8BC0204F52E74406880477F
:101A2000206800F016FE2560304670BD10B5D0E984
:101A3000AE4159B194F80002FF2807D08B6894F8A2
:101A4000012221469847FF2084F80002002010BDA3
:101A50000A2101800048704778000020432101805E
:101A600000487047C80000204321018000487047AB
:101A70008400002043210180004870470C010020B1
:101A80002DE9F04104460026007C4FF40077012543
:101A900090B3402302228121204600F063FB4023C3
:101AA000E56202220121204600F05CFB08230322AC
:101AB00082212046C4F86C5100F054FB4FF40770AB
:101AC000256400F0C7FDC4F8B802F8B10546D4F8A3
:101AD000BC02006880470020C5F81402C5F818024F
:101AE000207CD5F8042298B140230121204600F043
:101AF00045FB3046BDE8F081FFE73B4602228121ED
:101B0000204600F02FFB3B46E562CAE70126F0E7DE
:101B10003B46EAE710B5D0F8B81269B1027C002A5A
:101B2000D1F8042205D04023012100F027FB00203A
:101B300010BD4FF40073F7E7022010BD02460220EB
:101B4000002902D00020C2F8BC127047D0F8B802B9
:101B5000C0F8041200207047D0F8B802C0F8102274
:101B6000C0F80812002070472DE9FC410546D0F866
:101B7000B87200208DF80000ADF804000646087821
:101B80000C4610F0600121D020293BD1E288AAB197
:101B90000006607807D5D5F8BC128B68394698479F
:101BA000E288394626E087F80002A07987F801022A
:101BB000E2883946284600F06AF828E0D5F8BC12D9
:101BC000607800228B682146984720E0607820B139
:101BD0000A2809D00B2815D110E095F89C0203289B
:101BE00010D1022201A905E095F89C02032809D131
:101BF00001226946284600F064F808E095F89C0246
:101C0000032804D02146284600F036F80226304644
:101C1000BDE8FC8110B5D0F8B812A1B1D1F81422FA
:101C20000AB1012010BD0122C1F81422D1F81022FE
:101C30000263B1F8102293B2D1F80822812100F09A
:101C400038FB002010BD022010BD10B5D0F8B42222
:101C500052689047002010BD134610B50A46002177
:101C600000F08CFA002010BD134610B50A46002182
:101C700000F01FFB002010BD10B50446802100F0CD
:101C8000FDFA2046BDE81040002100F0F7BA10B57B
:101C90000323C0F85C21C0F89432C0F860211346D9
:101CA0000A46002100F06AFA002010BD10B5052197
:101CB0000023C0F894121A46194600F05FFA00207B
:101CC00010BD10B50223C261C0F8943202621346FF
:101CD0000A46002100F0EDFA002010BD10B50421E5
:101CE0000023C0F894121A46194600F0E2FA0020C8
:101CF00010BD000010B50A46024903A000F0E2F84A
:101D0000004810BD4C05002043444320436F6E66DD
:101D100069670000122008800048704724000020F6
:101D200010B50A46024903A000F0CCF8004810BDE7
:101D30004C05002043444320496E7465726661631C
:101D40006500000004200880004870472000002043
:101D500010B50A46024903A000F0B4F8004810BDCF
:101D60004C05002053544D6963726F656C65637454
:101D7000726F6E696373000010B50A46024903A0D2
:101D800000F0A0F8004810BD4C05002053544D331E
:101D900032205669727475616C20436F6D506F729A
:101DA0007400000010B51A2008800A480168001D60
:101DB0000468001D0068081809D008220649FFF7CA
:101DC0007BFB0549042210312046FFF775FB0248D2
:101DD000801E10BDE8F7FF1F3A000020F8B504464A
:101DE0000020ADF8000048880D46010A082948D2B5
:101DF000DFE801F04704091747473C45D4F8B01223
:101E0000207C0A6819E0207C02260028D4F8B4025D
:101E100005D0C16A68468847014646703EE0816A3F
:101E2000F8E7C0B206282CD2DFE800F0030A10144D
:101E3000181CD4F8B002426805E0694690471CE0DF
:101E4000D4F8B0028268E2B1207CF6E7D4F8B002A0
:101E5000C268F8E7D4F8B0020269F4E7D4F8B00237
:101E60004269F0E7D4F8B0028269ECE7207C40B91F
:101E7000D4F8B402416B6846884701460EE0207CE6
:101E800020B129462046FFF7F7FEF8BDD4F8B4028A
:101E9000016B68468847014607204870BDF800007E
:101EA00048B1EA8852B1824200D90246ADF800201A
:101EB0002046FFF706FFE8880028E6D12046FFF716
:101EC0000DFFF8BD70B5002300281ED00446002584
:101ED00002E06D1CEDB2641C2678002EF9D10224BC
:101EE00004EB450414801278CA545B1C0322CA54C4
:101EF00000245B1C06E0CA545B1CDAB28C54521CF2
:101F0000D3B2401C0278002AF5D170BD01004FF019
:101F1000000004D0012901D0022901D0022070471D
:101F20000120704710B580B1D0F8B43213B100234E
:101F3000C0F8B43209B1C0F8B012012180F89C1287
:101F4000027000F0BFF8002010BD022010BD10B5D7
:101F5000D0F8C002FEF774FBBDE81040FFF7D6BF13
:101F600010B5D0F8C002FEF745FBBDE81040FFF702
:101F7000CDBF2DE9F0411746044651B1D4F8B40263
:101F800042691AB194F89C02032851D00220BDE89E
:101F9000F081D4F89432002504F11400022B03D010
:101FA000042B3AD0C3B33CE0D0E903639E4207D987
:101FB000F11AC1608AB239462046FFF755FE12E099
:101FC0008068B0FBF3F103FB110199B9984211D37A
:101FD000D4F8981288420DD2002211462046FFF70D
:101FE00043FEC4F8985200231A461946204600F0D2
:101FF000C5F816E0D4F8B402C16829B194F89C027F
:10200000032801D1204688478021204600F036F978
:102010002046FFF74BFE04E0FFE78021204600F05A
:102020002DF994F8A002012804D184F8A05201E00F
:10203000204690470020AAE770B51546044649B1EE
:10204000D4F8B40282691AB194F89C02032830D003
:10205000022070BDD4F8941204F5AA70032902D0AE
:1020600005291ED027E0D0E903218A420BD9531A53
:10207000C3600846834200D303469AB229462046ED
:10208000FFF7EAFD17E0D4F8B402016929B194F82A
:102090009C02032801D1204688472046FFF71EFEF8
:1020A00009E000200146C4F89402204600F0E6F85A
:1020B00001E020469047002070BDD0F8C002FEF736
:1020C000FCBC000010B504461C481D49C0F8EC4299
:1020D000C4F8C00201600821416002218160002132
:1020E0008161C1610162FEF721FE08B1FEF7AFF91F
:1020F0000022D4F8C0021823114604F53074FEF70C
:1021000047FA5823002280212068FEF741FAC023B5
:10211000002281212068FEF73BFA4FF488730022E9
:1021200001212068FEF734FA4FF4807300228221E7
:102130002068FEF72DFA002010BD00006C11002071
:10214000005C00400A0601F07F01D0F8C00201EBFC
:10215000810100EBC10002D590F82A00704790F889
:102160006A01704710B51C461346D0F8C0022246DB
:10217000FEF7ACFCBDE81040FFF7C8BE10B5D0F8C4
:10218000C002FEF7D0FCBDE81040FFF7BFBE70B53F
:102190000022044640231146FFF7E4FF40260125B4
:1021A000C4F864613346002280212046C4F85851A7
:1021B000FFF7D8FF6662A56184F89C520020C4F83E
:1021C00094026060C4F8A402D4F8B80228B1D4F82C
:1021D000B4020021426820469047002070BD90F86C
:1021E0009C12042903D190F89D1280F89C120020C3
:1021F000704710B590F89C12032904D1D0F8B4129E
:10220000C96901B18847002010BD017400207047E2
:1022100010B5D0F8C002FEF730FEBDE81040FFF761
:1022200075BE70B5044600F52A70054600F04AF800
:102230000120C4F89402B4F8AE02C4F8980294F8ED
:10224000A80210F01F010AD001290DD0022910D0D8
:1022500000F08001204600F011F8002070BD2946F2
:10226000204600F09EF8F8E72946204600F0CAF91B
:10227000F3E72946204600F01DF9EEE710B5D0F847
:10228000C002FEF767FCBDE81040FFF73FBE10B587
:10229000D0F8C002FEF70CFEBDE81040FFF736BED6
:1022A00090F89C1280F89D12042180F89C12002066
:1022B000704710B5D0F8C002FEF785FCBDE81040AD
:1022C000FFF724BE0A7802704A7842708A78CB7889
:1022D00002EB032242800A794B7902EB03228280CF
:1022E0008A79C97902EB0121C1807047024600203A
:1022F00011B1C2F8B41270470220704710B5D0F87F
:10230000B42202241AB11268904700B90024204672
:1023100010BD000070B50E461E4D89780446297028
:10232000012931D894F89C0202280BD003280FD041
:1023300031462046FFF7A0FC29782046BDE87040D2
:10234000FFF783BCD9B10320616084F89C0209E0E7
:1023500071B16068884212D0C1B22046FFF775FCA7
:10236000297861602046FFF7C9FF02280CD006E0FB
:10237000022084F89C0220466160FFF766FC20463C
:10238000BDE87040FFF7AABC31462046BDE870406A
:10239000FFF772BC7400002010B5FFF778FF002033
:1023A00010BD2DE9F0410A78002612F0600208D035
:1023B000202A01D0402A70D1D0F8B42292689047E8
:1023C0006DE04B78002201250A2B66D2DFE803F08E
:1023D000405D6557650805652C29FFF7FFFC5EE049
:1023E00004468888D8B9C888C8B94888802816D2D1
:1023F00000F07F0794F89C02032810D084F89E72A6
:1024000039462046FFF704FF2046FFF767FC1FB15F
:10241000022084F89C0242E084F89C523FE020466F
:102420003BE0FFF777FF3AE0CB88012B35D190F8FE
:102430009C32012B04D0022B02D0032B2DD104E0BF
:102440008260012200F1080116E00122011D13E063
:1024500090F89C22012A03D0022A01D0032A1CD121
:10246000CA88022A19D1C560D0F8A41209B1032183
:10247000C160022200F10C01FFF723FC0FE0498844
:1024800001290CD1C0F8A45211E090F89C32012B24
:1024900008D0022B06D0032B04D0FFF7EDFB30460B
:1024A000BDE8F08149880129F9D1C0F8A422FFF7DD
:1024B00015FCF4E72DE9F0410A46044610780027A0
:1024C000097910F060030AD0202B01D0402B50D1A5
:1024D000D4F8B40211468368204698478FE0C0F3D1
:1024E0004110012806D05078D0B301282AD0032803
:1024F0003FD107E0D4F8B402114683682046BDE816
:10250000F041184794F89C02022802D0032872D1A7
:102510000AE071B380296ED02046FFF7AFFE80211C
:102520002046FFF7ABFE6AE0508838B931B1802908
:1025300004D0D08810B92046FFF7A0FE2046FFF750
:10254000CDFB5CE094F89C020228E2D0032852D133
:10255000508898BB4806F1D02046FFF7F8FCEDE71D
:10256000FFE794F89C020026022803D0032842D1FA
:1025700012E040E009B180293DD1080601F07F005A
:1025800000EB800004EB800101D5143101E001F57E
:10259000AA7102220E602AE0080601F00F0000EB8B
:1025A000800004EB80000AD5806920B301F07F0031
:1025B00000EB800004EB800514350BE01FE0D0F841
:1025C0005801C0B101F07F0000EB800004EB8005F2
:1025D00005F5AA7541B1802906D02046FFF7B2FD66
:1025E00010B10120286000E02E600222294620461A
:1025F000FFF767FB03E011462046FFF73DFB384637
:10260000BDE8F08170B5054608780C4610F0600012
:1026100003D0202801D0402816D195F89C0201282B
:1026200003D0022801D003280ED1207901280BD82D
:10263000D5F8B402826828469047E188014306D164
:102640002846FFF74BFB02E02846FFF715FB00206A
:1026500070BD7047004870474C0F00202DE9F047CF
:102660000C78002630F8243048F68F121340CA78D0
:10267000002A78D0012A7CD0022A02D0032A75D001
:10268000012648F28002134320F824300D7830F8F8
:10269000253048F68F7423402B43134320F8253010
:1026A0000D7B48F2C00948F6BF734CF2800A4BF626
:1026B0008F77EDB3CD7891F800C0022D30F82C5013
:1026C0007DD048F68F6805EA0805154320F82C50A0
:1026D000B0F8505091F800C0054405EB0C15B1F866
:1026E00008C02CF0010CA5F800C4B0F8505091F8C7
:1026F00000C0054405EB0C15B1F80AC02CF0010C24
:10270000A5F808C44D78002D7ED00D7830F825C08E
:102710005FEA4C4C07D530F825C00CEA040C4CEAB3
:102720000A0C20F825C091F800C030F82C5000E0C9
:1027300022E06D0606D530F82C50254045EA090503
:1027400020F82C50CC780D78012C30F8254004EA84
:1027500003047CD084F02003134320F82530C1E02B
:1027600001E006E002E043F400738AE743F4C0634B
:1027700087E743F4806384E74D784DB3B0F8505059
:102780000F78054405EB0715CF8827F00107A5F85A
:1027900000740F7830F827506D0606D530F82750B2
:1027A000254045EA090520F82750CC78012C07D0B0
:1027B0000C7830F82410194081F0200104E064E026
:1027C0000C7830F824101940114320F8241090E0C0
:1027D000B0F850300D78034403EB0513CD8825F095
:1027E0000105A3F80854B0F850300D78034403EB0A
:1027F0000513B3F80C54C5F30905A3F80C540D697F
:1028000003F20C433E2D00E045E00BD94FEA551C86
:10281000ED0601D1ACF1010C1D884FF4004848EAE7
:102820008C2C0BE035B34FEA550CED0701D00CF1C1
:10283000010C1D884FF6FF7808EA8C2C45EA0C0540
:102840001D800D7830F825305B0408D500E046E0A7
:1028500030F82530234043EA0A0320F82530097870
:1028600061B130F821303B4083F40053134320F82A
:1028700021303EE01D8845F40045E1E701883940FC
:1028800081F440511143018033E0254048F2801823
:1028900045EA08051AE791F800C030F82C506D049D
:1028A00006D530F82C50254045EA0A0520F82C5072
:1028B00091F800C030F82C506D0606D530F82C5039
:1028C000254045EA090520F82C500D7830F82540C0
:1028D0003C4084F44054144320F8254070E71443EE
:1028E00020F825400B7830F823103940114320F8A8
:1028F00023103046BDE8F087002070472DE9F043F3
:1029000091F80C804F780A7848F6BF7C4BF68F79A7
:1029100048F2800348F2C0054CF2800648F68F74F6
:10292000B8F1000F28D0002F30F822704FEA474747
:1029300048D0002F05DA30F822702740374320F8BE
:1029400022700A7830F822707F0605D530F82270A0
:1029500027402F4320F822700D7830F825202240A0
:10296000324320F825200C7830F8242002EA0C02AB
:102970001A4320F824201AE07FB130F8226076064E
:1029800005D530F8226026402E4320F822600A78D0
:1029900030F8221001EA0C010EE030F822506D04EC
:1029A00005D530F822502540354320F822500A78CA
:1029B00030F8221001EA0901194320F82210002002
:1029C000BDE8F083002F05DA30F822702740374346
:1029D00020F822700A7830F82260760605D530F8A3
:1029E000226026402E4320F822600E7830F8262000
:1029F00022402A4320F826200C7830F8242002EACE
:102A000009021A4320F82420C1E700207047002063
:102A10007047012120F8401F002101808180018240
:102A20000846704730F8401F21F43F4101800020E4
:102A300070470020704730B50A7BB2BB4A7848F631
:102A40008F7548F28004C2B10B7830F8232052060B
:102A500007D530F823202A4048F2C0052A4320F841
:102A60002320CA78012A20D00A7830F8221048F6AC
:102A7000BF73194081F0200114E00A7830F8223049
:102A80005B0407D530F822302B404CF280052B43F5
:102A900020F822300A7830F822104BF68F73194054
:102AA00081F44051214320F82210002030BD10B5A0
:102AB0004A780978002A48F2800330F8212005D0AE
:102AC00048F6BF74224082F0100204E04BF68F7487
:102AD000224082F480521A4320F82120002010BDA9
:102AE0002DE9F0470D464B78097B04464FF000096D
:102AF00048F68F7248F2800A4FF400474FF6FF788D
:102B0000012B09D000296FD0E87802286DD0012868
:102B10006CD00120BDE8F087AE692869864200D9F3
:102B2000064691B1E97802291ED0286A801B2862E6
:102B3000287834F820104906B4F85010214401EBED
:102B4000001073D5A0F80C6416E1B3B2EA882046F1
:102B5000696900F067FAB4F850002978204400EB66
:102B60000110A0F804640DE1296A814277D929781F
:102B700034F82100104048F28012104324F821005C
:102B8000286A801B2862287834F820104906697862
:102B900071D511B101292AD030E0B4F85010214488
:102BA00001EB0010B0F80C14C1F30901A0F80C14EB
:102BB00000F20C403E2E07D97109F20600D1491EE1
:102BC000028847EA812107E04EB17108F20700D080
:102BD000491C028808EA81210A4302800EE001882C
:102BE00041F40041018009E0F1E020E195E1B4F811
:102BF0005020111901EB0010A0F80C646A89B3B2DF
:102C00002046696900F00EFA6869304468612969F4
:102C1000286A884202D9801B286202E00646C5F86D
:102C20002090687818B101282BD032E02FE0B4F85A
:102C300050002978204400EB0110B0F80414C1F3CF
:102C40000901A0F8041400F204403E2E08D97109CD
:102C5000F20600D1491E028847EA812108E0A1E07E
:102C600056B17108F20700D0491C028808EA812198
:102C70000A4302800DE00EE0018841F4004101802A
:102C800007E0B4F850002978204400EB0110A0F8C8
:102C900004642A8971E011B1012927D02DE0B4F82C
:102CA0005010214401EB0010B0F80414C1F30901E5
:102CB000A0F8041400F204403E2E07D97109F20670
:102CC00000D1491E028847EA812107E04EB1710810
:102CD000F20700D0491C028808EA81210A430280D9
:102CE0000BE0018841F40041018006E0B4F8501087
:102CF000214401EB0010A0F804642A89B3B22046F5
:102D0000696900F08FF96869304468612969286A47
:102D1000884202D9801B286202E00646C5F820904E
:102D2000687810B1012836D026E0B4F85000297830
:102D3000204400EB0110B0F80C14C1F30901A0F815
:102D40000C1400F20C403E2E07D97109F20600D196
:102D5000491E028847EA812107E04EB17108F20757
:102D600000D0491C028808EA81210A43028003E05E
:102D7000018841F4004101806A89B3B22046696943
:102D800000F050F9297834F8210048F6BF7210405D
:102D900080F030000FE1B4F850100819297800EBEA
:102DA0000110CFE62A7834F8220048F68F631840E5
:102DB00040EA0A0024F82200B4F850002A7820449F
:102DC00000EB02108BB2A0F804342A89D6E7A96977
:102DD0002869814202D9091AA96102E00846C5F8AA
:102DE0001890B4F850102A78214401EB0211B1F880
:102DF0000C24C2F30902A1F80C2401F20C413E2874
:102E00007DD94209C00600D1521E088847EA8222B5
:102E10000AE0088840F4004007E04208C00700D0FC
:102E2000521C088808EA822210430880BBE033BBAA
:102E3000B4F850002978204400EB0110B0F80414D5
:102E4000C1F30901A0F80414296900F204403E29E5
:102E500007D94B09C90600D15B1E018847EA8323C5
:102E600007E041B14B08C90700D05B1C018808EAA4
:102E70008323194302E0018841F40041018068780E
:102E800010B1012828D030E0B4F85000297820444F
:102E900000EB0110B0F80C14C1F30901A0F80C14F8
:102EA000296900F20C403E2907D94B09C90600D117
:102EB0005B1E018847EA832307E041B14B08C9073D
:102EC00000D05B1C018808EA8323194302E00188D3
:102ED00041F40041018008E0B4F850100819297845
:102EE00000EB0110298AA0F80C14E869C0B3297816
:102EF00034F82100430401D5430605D400E046E040
:102F000044F2400318424ED134F82100104048F2F8
:102F1000C002104324F8210045E0A96928698142D4
:102F200002D9091AA96102E00846C5F8189013BB36
:102F3000B4F850102A78214401EB0211B1F80424AE
:102F4000C2F30902A1F8042401F204413E2808D981
:102F50004209C30600D1521E0B8847EA822208E0CC
:102F600021E078B14208C30700D0521C0B8808EA60
:102F7000822213430B80697800293FF42EAF012988
:102F800009D010E00A8842F400420A80F3E70028E2
:102F90007FF443AF3DE7B4F8502011192A7801EBD4
:102FA0000211A1F80C04297834F821004BF68F7235
:102FB000104080F4405040EA0A0024F8210000202C
:102FC000A8E50021A0F844104FF43F41A0F84010BC
:102FD000002070470148FDF70FBE00006C11002073
:102FE000B0F844007047000010B500EB42005C08E8
:102FF00000F5806009D000BF30F8042B01F8012BE8
:10300000120A01F8012B641EF6D1DA0701D00088FC
:10301000087010BD0020704711B98021A0F84C1035
:103020000020704710B55B1C00EB42005B0800F508
:10303000806009D011F8012B11F8014B42EA0422FB
:1030400020F8042B5B1EF5D110BDFEE70907090E21
:10305000002804DB00F1E02080F80014704700F045
:103060000F0000F1E02080F8141D704708B5FDF74F
:10307000FFF9FEF743FC0E48816941F020018161B0
:10308000816901F020010091816941F004018161B1
:10309000806900F004000090FEF72AFA054C002534
:1030A00021880029FCD00448FDF7BAF92580F7E70C
:1030B00000100240000000208801002001020203ED
:1030C0000405060708090A0B0C0D0E0F101000006E
:1030D00000000000000001020304060708090000C8
:1030E00000310008000000208801000028010008CD
:1030F000C031000888010020381900008401000850
:103100004113151D1B0845041A51041A79041AA508
:103110000413F51C1B0821081704030904120114E9
:1031200002020216408304405726020102030103F3
:103130001A1A0313C9031B08C5041AC1041AED04A3
:10314000192F1182105324F4130A0632022A401C4C
:103150001C090243571125C03209041B01020B133D
:10316000052416100105240110090104240202059A
:103170002406170107058203081C1009048D320A72
:103180001D07050102432C070581070938442A4021
:10319000072A8107112B0907440A3B044413811AAB
:1031A0001408E9191408691B42081A2D101A751021
:1031B0001ABB04C11A69182A5D1C19041A510400AB
:04000005080000ED02
:00000001FF
